:100000000C9434000C9449000C9449000C94490061
:100010000C9449000C9449000C9449000C9449003C
:100020000C9449000C9449000C9449000C9449002C
:100030000C9449000C9449000C9449000C9449001C
:100040000C9449000C9449000C9449000C9449000C
:100050000C9449000C9449000C9449000C944900FC
:100060000C9449000C94490011241FBECFEFD8E036
:10007000DEBFCDBF11E0A0E0B1E0E8E6F1E002C0F4
:1000800005900D92A033B107D9F70E944B000C9454
:10009000B2000C940000CF93DF93CDB7DEB7E097AA
:1000A0000FB6F894DEBF0FBECDBF8FEF84B987B116
:1000B000836087B98AB18C6F8AB988E0E0E0F1E0AB
:1000C000DE01119601900D928A95E1F788E2E8E051
:1000D000F1E0DE01199601900D928A95E1F740E07A
:1000E00050E03CC09C018230910548F41BB8E1E02F
:1000F000F0E0EC0FFD1FE80FF91FE081E8B92230B6
:10010000310548F018B8E1E0F0E0EC0FFD1FE80F12
:10011000F91F20812BB9FA01E80FF91F29E030E01F
:100120002C0F3D1FE20FF31F2081209525B9E3EF2F
:10013000F1E03197F1F700C00000019602C080E0C5
:1001400090E08830910574F26F5F7F4F02C060E0ED
:1001500070E0623371059CF34F5F5F4F4032510591
:08016000B4F3BDCFF894FFCF0A
:100168000102040810204080007E7E18187E7E0060
:10017800007E7E66667E7E00007E7E606060600037
:10018800007E7E16167E7E00000000000000000043
:00000001FF
