:100000000C9434000C9449000C9449000C94490061
:100010000C9449000C9449000C9449000C9449003C
:100020000C9449000C9449000C9449000C9449002C
:100030000C9449000C9449000C9449000C9449001C
:100040000C9449000C9449000C9449000C9449000C
:100050000C9449000C9449000C9449000C944900FC
:100060000C9449000C94490011241FBECFEFD8E036
:10007000DEBFCDBF11E0A0E0B1E0ECE3F2E002C0F2
:1000800005900D92A834B107D9F70E94CB000C94CB
:100090001C010C9400000F931F93CF93DF93EC018E
:1000A00000E010E01CC0DA01AE0FBF1F9C919BB9AD
:1000B000DF01AC0FBD1FA20FB31F9C91909595B9A6
:1000C00083EF91E00197F1F700C00000319602C084
:1000D000E0E0F0E0E830F10534F30F5F1F4F061762
:1000E0001707B4F3DF91CF911F910F910895EF920D
:1000F000FF920F931F93CF93DF938C017B01C0E09E
:10010000D0E008C09701A8016AE070E0CE010E942B
:100110004B002896C931D105ACF3C8E1D0E008C046
:100120009701A8016AE070E0CE010E944B00289779
:10013000DD23B4F7DF91CF911F910F91FF90EF90E6
:100140000895EF92FF920F931F93CF93DF938C014B
:100150007B01C0E0D0E008C09701A80164E670E030
:10016000CE010E944B002896C931D105ACF3C8E1FD
:10017000D0E008C09701A80164E670E0CE010E94BB
:100180004B002897DD23B4F7DF91CF911F910F919A
:10019000FF90EF900895CF93DF93CDB7DEB7C854AB
:1001A000D1090FB6F894DEBF0FBECDBF8FEF84B973
:1001B0008AB987B187B988E0E0E0F1E0DE01119605
:1001C00001900D928A95E1F780E2E8E0F1E0DE012E
:1001D000199601900D928A95E1F780E2E8E2F1E04C
:1001E000DE01999601900D928A95E1F700E010E00A
:1001F00018C0BE01675D7F4FCE0101960E94A1002D
:1002000086B1813471F407C0BE01675F7F4FCE01B4
:1002100001960E94770086B18134B1F301E010E0CD
:1002200003C00115110529F3BE01675D7F4FCE01A3
:0C02300001960E94A100F5CFF894FFCFCA
:10023C000102040810204080000000181800000083
:10024C0000002400002400000042000000004200D6
:10025C008100000000000081000000181800000060
:10026C0000003C24243C0000007E424242427E00BE
:08027C00FF818181818181FF76
:00000001FF
