S01300004D617472697A5F4C6564732E73726563B3
S11300000C9434000C9449000C9449000C9449005D
S11300100C9449000C9449000C9449000C94490038
S11300200C9449000C9449000C9449000C94490028
S11300300C9449000C9449000C9449000C94490018
S11300400C9449000C9449000C9449000C94490008
S11300500C9449000C9449000C9449000C944900F8
S11300600C9449000C94490011241FBECFEFD8E032
S1130070DEBFCDBF11E0A0E0B1E0E6EBF2E002C0EC
S113008005900D92A035B107D9F70E94CA000C94CF
S113009059010C9400008AB182608AB98AB18E7FBA
S11300A08AB91092C00088E98093C10086E08093E9
S11300B0C20087E690E09093C5008093C400089541
S11300C0EF92FF920F931F93CF93DF93EC0100E025
S11300D010E02CC07F01E530F10538F41BB8CA01EB
S11300E08E0F9F1FDC018C9188B9B5E0EB16F104EB
S11300F030F018B8D701A40FB51F8C918BB9DF016C
S1130100AC0FBD1FA20FB31F9C91909595B983EFBF
S113011091E00197F1F700C00000319602C0E0E0E1
S1130120F0E0E830F105B4F20F5F1F4F0617170730
S1130130B4F3DF91CF911F910F91FF90EF90089549
S1130140EF92FF920F931F93CF93DF938C017B0168
S1130150C0E0D0E008C09701A8016FE070E0CE01D4
S11301600E9460002896C032D105ACF3C8E1D0E00B
S113017008C09701A8016FE070E0CE010E94600002
S11301802897DD23B4F7DF91CF911F910F91FF9052
S1130190EF900895CF93DF93CDB7DEB7C055D10963
S11301A00FB6F894DEBF0FBECDBF8FEF84B987B111
S11301B08F6187B98AB1806E8AB98AB18AB90E947F
S11301C04B0088E0E0E0F1E0DE01119601900D9231
S11301D08A95E1F788E2E8E0F1E0DE011996019002
S11301E00D928A95E1F780E2E0E3F1E0DE01D19639
S11301F001900D928A95E1F789B18430E9F389B1D0
S11302008630D1F789B18630E9F300E010E009C007
S1130210BE016F5C7F4FCE0101960E94A0000F5F6C
S11302201F4F0A301105A4F340E050E03CC09C018C
S11302308530910548F41BB8E1E0F0E0EC0FFD1FB8
S1130240E80FF91FE081E8B92530310548F018B806
S1130250E1E0F0E0EC0FFD1FE80FF91F20812BB95E
S1130260FA01E80FF91F29E030E02C0F3D1FE20FDF
S1130270F31F2081209525B9E3EFF1E03197F1F7E1
S113028000C00000019602C080E090E08830910533
S113029074F26F5F7F4F02C060E070E064317105FB
S11302A09CF34F5F5F4F40325105B4F315B81BB850
S10902B0A3CFF894FFCF78
S11302B60102040810204080007E7E18187E7E000D
S11302C6007E7E66667E7E00007E7E6060606000E4
S11302D6007E7E16167E7E000000000000000000F0
S11302E6000000181800000000002400002400008C
S11302F6004200000000420081000000000000816E
S9030000FC
