S01300004D617472697A5F4C6564732E73726563B3
S11300000C9475000C948A000C948A000C948A0059
S11300100C948A000C948A000C948A000C948A0034
S11300200C948A000C948A000C948A000C948A0024
S11300300C948A000C948A000C948A000C948A0014
S11300400C948A000C948A000C948A000C948A0004
S11300500C948A000C948A000C948A000C948A00F4
S11300600C948A000C948A0007634236B79BD8A785
S11300701A39685618AEBAAB558C1D3CB7CC5763C9
S1130080BD6DEDFD753EF6177231BF000000803F77
S113009008000000BE922449123EABAAAA2ABECD93
S11300A0CCCC4C3E00000080BEABAAAAAA3E000005
S11300B00000BF000000803F0000000000084178FD
S11300C0D3BB4387D1133D190E3CC3BD4282AD2B34
S11300D03E68EC8276BED98FE1A93E4C80EFFFBE2C
S11300E001C4FF7F3F000000000011241FBECFEFBA
S11300F0D8E0DEBFCDBF12E0A0E0B1E0E2E3F5E17D
S113010002C005900D92A232B107D9F70E94F40201
S11301100C94970A0C9400000F931F93CF93DF93D2
S1130120EC0100E010E01CC0DA01AE0FBF1F9C918F
S11301309BB9DF01AC0FBD1FA20FB31F9C9190951B
S113014095B983EF91E00197F1F700C00000319673
S113015002C0E0E0F0E0E830F10534F30F5F1F4F38
S113016006171707B4F3DF91CF911F910F910895EC
S1130170EF92FF920F931F93CF93DF938C017B0138
S1130180C0E0D0E008C09701A80165E070E0CE01AE
S11301900E948C002896C931D105ACF3C8E1D0E0A7
S11301A008C09701A80165E070E0CE010E948C00B0
S11301B02897DD23B4F7DF91CF911F910F91FF9022
S11301C0EF900895EF92FF920F931F93CF93DF93D5
S11301D08C017B01C0E0D0E008C09701A80165E074
S11301E070E0CE010E948C002896C931D105ACF391
S11301F0C8E1D0E008C09701A80165E070E0CE0135
S11302000E948C002897DD23B4F7DF91CF911F91D2
S11302100F91FF90EF900895EF92FF920F931F9329
S1130220CF93DF937C018B0188E088B9C0E0D0E0F4
S113023008C09801A70167E070E0CE010E948C001D
S11302402196C035D105ACF318B8DF91CF911F9139
S11302500F91FF90EF90089580E188B983EF91E0CA
S11302600197F1F700C0000018B80895EF92FF92CB
S11302700F931F93CF93DF937C018B01C0E0D0E0F9
S113028008C09801A7016AE070E0CE010E948C00CA
S11302902896C830D105ACF3DF91CF911F910F910F
S11302A0FF90EF900895EF92FF920F931F93CF93D7
S11302B0DF937C018B01C0E0D0E008C09801A70166
S11302C064E670E0CE010E948C002896C930D10506
S11302D0ACF3DF91CF911F910F91FF90EF900895B0
S11302E0AF92BF92CF92DF92EF92FF920F931F9340
S11302F0CF93DF93EC015B017A016901BA010E949B
S113030036018FE39CE90197F1F700C00000B501C5
S1130310CE010E9436018FE39CE90197F1F700C0FA
S11303200000B801CE010E9436018FE39CE90197D9
S1130330F1F700C00000B601CE010E9436018FE340
S11303409CE90197F1F700C00000B501CE010E94BD
S113035036018FE39CE90197F1F700C00000B60174
S1130360CE010E9436018FE39CE90197F1F700C0AA
S11303700000B701CE010E9436018FE39CE901978A
S1130380F1F700C00000DF91CF911F910F91FF9012
S1130390EF90DF90CF90BF90AF900895CF92DF920F
S11303A0EF92FF920F931F93CF93DF93EC018A0197
S11303B06901E12CF12C1FC00E941E0A9E010D2E22
S11303C0000C440B550B0E949209660F771FD8014D
S11303D0A60FB71F8D919C911197009769F3F701B0
S11303E0EE0FFF1FEC0DFD1D918380831D921C9267
S11303F08FEFE81AF80AEC16FD06F4F2DF91CF91BC
S11304001F910F91FF90EF90DF90CF900895AF92DE
S1130410BF92CF92DF92EF92FF920F931F93CF93ED
S1130420DF93EB015A01690182309105F1F01CF46C
S1130430019771F03BC08330910529F1049789F14C
S113044035C0B501CE010E9436010F5F1F4F02C0B7
S113045000E010E004311105A4F328C0B601CE0178
S11304600E9436010F5F1F4F02C000E010E004310C
S11304701105A4F31BC0B801CE010E9436018FEF11
S1130480E81AF80A02C0E12CF12C84E1E816F10420
S113049094F30CC0B701CE010E9436010F5F1F4FC9
S11304A002C000E010E004311105A4F3DF91CF9104
S11304B01F910F91FF90EF90DF90CF90BF90AF907E
S11304C008952F923F924F925F926F927F928F92F4
S11304D09F92AF92BF92CF92DF92EF92FF920F93CF
S11304E01F93CF93DF9300D000D0CDB7DEB74C017C
S11304F07A8369833A013C832B83180127017501B0
S11305000E942C0169817A81C4010E9453018501F2
S11305109601A201B101C4010E9470018B819C81EA
S1130520880F991F860D971D9A83898386019201EE
S1130530A101B401FC01808191810E9407020F9006
S11305400F900F900F90DF91CF911F910F91FF901B
S1130550EF90DF90CF90BF90AF909F908F907F905F
S11305606F905F904F903F902F900895EF92FF927D
S11305700F931F93CF93DF937C018B01C0E0D0E0F6
S113058008C09801A7016AE070E0CE010E948C00C7
S11305902896C830D105ACF3DF91CF911F910F910C
S11305A0FF90EF900895EF92FF920F931F93CF93D4
S11305B0DF937C018B0180E288B9C0E0D0E008C001
S11305C09801A7016AE070E0CE010E948C00219698
S11305D0C833D105ACF380E288B9DF91CF911F9184
S11305E00F91FF90EF900895CF93DF93CDB7DEB7CF
S11305F0CC56D1400FB6F894DEBF0FBECDBF8FEFFF
S113060084B98AB987B187B987B1886387B988E023
S1130610E4E0F1E0DE01119601900D928A95E1F794
S11306200F2EF1E83F2EF02D2224239488E5ECE0F0
S1130630F1E0DE01199601900D928A95E1F780E2CE
S1130640E4E6F1E0DE01AF59BF4F01900D928A95C7
S1130650E1F780E2E4E8F1E0DE01AF57BF4F01903B
S11306600D928A95E1F788E0E4EAF1E0DE01AF5506
S1130670BF4F01900D928A95E1F788E0ECEAF1E032
S1130680DE01A755BF4F01900D928A95E1F788E0EE
S1130690E4EBF1E0DE01AF54BF4F01900D928A9577
S11306A0E1F788E0ECEBF1E0DE01A754BF4F0190E5
S11306B00D928A95E1F788E0E4ECF1E0DE01AF53B6
S11306C0BF4F01900D928A95E1F788E0ECECF1E0E0
S11306D0DE01A753BF4F01900D928A95E1F7FE0109
S11306E0EF52FF4F80E1DF01282F1D922A95E9F791
S11306F020827096DF01282F1D922A95E9F7278220
S11307007096DF01282F1D922A95E9F790E89083CF
S11307107096DF011D928A95E9F79783709688E0B9
S1130720DF011D928A95E9F780E4E4EDF1E0DE0152
S1130730A75EBE4F01900D928A95E1F701E010E0AB
S1130740812C912C2AC0BE016F597F4FCE01019696
S11307500E94B80086B1813459F4BE01675F7F4FAF
S1130760CE0101960E940C0188248394912C18C018
S1130770BE016F577F4FCE0101960E94E20086B101
S1130780813459F4BE01675F7F4FCE0101960E9408
S11307900C0188248394912C03C08114910499F250
S11307A0612C712C28C0BE016F557F4FCE0101967C
S11307B00E94360186B18234C1F40E942C01BE012C
S11307C067557F4FCE0101960E94360186B184346D
S11307D019F40E942C0109C086B1813481F7689410
S11307E0662462F8712C00E010E086B1813419F4BB
S11307F00115110521F401151105A9F605C00F2EE7
S1130800F3E06F2E712CF02DB3E06B16710409F038
S11308105BC086E0E4E1F2E0DE01AF59BE4F019037
S11308200D928A95E1F7C75ADE4F19821882C9558D
S1130830D140C55ADE4F19821882CB55D140C35AD4
S1130840DE4F19821882CD55D1409E01275A3E4F62
S1130850AE014F595E4F60E070E0C3010E94CE01CB
S1130860FE01E753FF4F5F019E012F533F4F690184
S1130870CE0187549F4F7C018E010F541F4F20E0FF
S113088030E0AE01475A5E4FBE016F527F4F885B26
S113089091090E94610221E030E0AE01475A5E4FA7
S11308A0BE016F517F4FCE0101960E946102C501C6
S11308B022E030E0AE01475A5E4FBE016F507F4FD9
S11308C0885C91090E946102F4E06F16710409F0DA
S11308D08AC188E0EAE1F2E0DE01AF59BE4F01903F
S11308E00D928A95E1F72E0127EA421A2EEF520A59
S11308F088E0D2011D928A95E9F79201AE014F5921
S11309005E4F60E070E0C3010E94CE01FE01E75338
S1130910FF4F5F019E012F533F4F6901CE01875462
S11309209F4F7C018E010F541F4F20E030E0A20145
S1130930BE016F527F4F885B91090E94610221E0E2
S113094030E0A201BE016F517F4FCE0101960E949B
S11309506102C50122E030E0A201BE016F507F4F69
S1130960885C91090E946102C60123E030E0A20183
S1130970BE016F5F7E4F805C91090E946102BFEFF0
S1130980E1EEF4E0B150E040F040E1F700C00000D7
S1130990C759DE4F188219821A821B82C956D14068
S11309A060E070E021C0FC01EE0FFF1F29E531E09B
S11309B02C0F3D1FE20FF31F408151819B012F5FDC
S11309C03F4F4217530749F4E9E6F1E0EC0FFD1FEE
S11309D0E60FF71F8083B90107C0019602C080E0CB
S11309E090E084309105FCF264307105C4F3662410
S11309F06A9477247A940F2EF7E0AF2EB12CF02D61
S1130A000F2EF7E0CF2ED12CF02DE12CF12CE7C0E6
S1130A10E9E6F1E0EC0FFD1FEE0DFF1D8081813052
S1130A2001F178F0823069F1833089F1D5C0BE01DB
S1130A306F547F4FCE0101960E9436010F5F1F4F06
S1130A4002C000E010E0043111058CF3C5C0BE0102
S1130A5067547F4FCE0101960E9436010F5F1F4FEE
S1130A6002C000E010E0043111058CF3B5C0BE01F2
S1130A706F537F4FCE0101960E9436010F5F1F4FC7
S1130A8002C000E010E0043111058CF3A5C081E838
S1130A90CF5EDE4F8883C151D1408FEFCC5EDE4FF5
S1130AA08883C451D140CB5EDE4F8883C551D14089
S1130AB0C85EDE4F3882C851D14089C0BE016F5E26
S1130AC07E4FCE0101960E94B602C85EDE4F288298
S1130AD0C851D1408FEFCC5EDE4F8883C451D140E2
S1130AE0CB5EDE4F8883C551D140BE016F5E7E4F21
S1130AF0CE0101960E94B602C85EDE4F3882C8510C
S1130B00D140CC5EDE4F6882C451D140CB5EDE4F13
S1130B107882C551D14086B1823459F580E188B9D3
S1130B2083EF91E00197F1F700C0000018B8B60117
S1130B300D2C000C880B990B0E94A2069B01AC01A2
S1130B4060E070E080E090E40E942E079B01AC011D
S1130B5060E070E08FE793E40E94FD050E946A065E
S1130B60762ECB5EDE4F6883C551D14091E0C91A21
S1130B70D10886B1843459F580E188B9A3EFB1E096
S1130B801197F1F700C0000018B8B5010B2C000C48
S1130B90880B990B0E94A2069B01AC0160E070E0F7
S1130BA080E090E40E942E079B01AC0160E070E0BD
S1130BB08FE793E40E94FD050E946A06662ECB5ED1
S1130BC0DE4F6883C551D140B1E0AB1AB108DD20D6
S1130BD01CF0BB200CF072CFEFEFEE1AFE0A1E14CD
S1130BE01F040CF015CFBE01675E7E4FCE01019647
S1130BF00E94D30200E010E0D0CD5058BB27AA27B2
S1130C000E9415060C94F4060E94E60638F00E9431
S1130C10ED0620F039F49F3F19F426F40C94E30612
S1130C200EF4E095E7FB0C94DD06E92F0E9405071E
S1130C3058F3BA17620773078407950720F079F40D
S1130C40A6F50C9427070EF4E0950B2EBA2FA02DD1
S1130C500B01B90190010C01CA01A0011124FF2765
S1130C60591B99F0593F50F4503E68F11A16F04060
S1130C70A22F232F342F4427585FF3CF469537955F
S1130C802795A795F0405395C9F77EF41F16BA0B24
S1130C90620B730B840BBAF09150A1F0FF0FBB1FD2
S1130CA0661F771F881FC2F70EC0BA0F621F731F1B
S1130CB0841F48F4879577956795B795F7959E3F78
S1130CC008F0B0CF9395880F08F09927EE0F979509
S1130CD0879508950E9471066894B1110C942807B1
S1130CE008950E940D0788F09F5798F0B92F99270F
S1130CF0B751B0F0E1F0660F771F881F991F1AF003
S1130D00BA95C9F714C0B13091F00E942707B1E039
S1130D1008950C942707672F782F8827B85F39F038
S1130D20B93FCCF3869577956795B395D9F73EF49B
S1130D3090958095709561957F4F8F4F9F4F089543
S1130D40E89409C097FB3EF4909580957095619561
S1130D507F4F8F4F9F4F9923A9F0F92F96E9BB2717
S1130D609395F695879577956795B795F111F8CF93
S1130D70FAF4BB0F11F460FF1BC06F5F7F4F8F4FFE
S1130D809F4F16C0882311F096E911C0772321F0F4
S1130D909EE8872F762F05C0662371F096E8862F8C
S1130DA070E060E02AF09A95660F771F881FDAF7E3
S1130DB0880F9695879597F9089597F99F6780E826
S1130DC070E060E008959FEF80EC089500240A9499
S1130DD01616170618060906089500240A94121612
S1130DE01306140605060895092E0394000C11F445
S1130DF0882352F0BB0F40F4BF2B11F460FF04C0F2
S1130E006F5F7F4F8F4F9F4F089557FD9058440F4A
S1130E10551F59F05F3F71F04795880F97FB991F55
S1130E2061F09F3F79F08795089512161306140612
S1130E30551FF2CF4695F1DF08C01616170618069F
S1130E40991FF1CF86957105610508940895E8947A
S1130E50BB2766277727CB0197F90895FA01EE0F90
S1130E60FF1F309621053105A1F16115710561F46B
S1130E708038BFE39B0749F168949038810561F09D
S1130E808038BFEF9B0741F099234AF5FF3FE10506
S1130E903105210519F1E8940894E795D901AA23AD
S1130EA029F4AB2FBE2FF85FD0F310C0FF5F70F4AE
S1130EB0A695E0F7F73950F019F0FF3A38F49F7728
S1130EC09F930DD00F9007FC9058089546F00C9412
S1130ED0E30660E070E080E89FE308954FE79F77C2
S1130EE05F934F933F932F930E9429082F913F9133
S1130EF04F915F910E94A5080C94860729F416F07F
S1130F000C94DD060C9427070C94E3060E940D074D
S1130F10A8F39638A0F707F80F92E8942BE33AEA7F
S1130F2048EB5FE70E94BB080F920F920F924DB7F8
S1130F305EB70F920E947108E8E6F0E00E94B807DD
S1130F404F915F91EF91FF91E595EE1FFF1F49F0DF
S1130F50FE57E0684427EE0F441FFA95E1F74195E8
S1130F60550B0E94EB070F9007FE0C94DF070895C2
S1130F70DF93CF931F930F93FF92EF92DF927B0146
S1130F808C01689406C0DA2EEF010E94B808FE01B5
S1130F90E894A5912591359145915591A6F3EF01DA
S1130FA00E941506FE019701A801DA9469F7DF9003
S1130FB0EF90FF900F911F91CF91DF9108959B01C6
S1130FC0AC0160E070E080E89FE30C9412090C949B
S1130FD0DD060C9484090E940D07D8F39923C9F304
S1130FE0940F511DA3F39150504094F059F088236D
S1130FF032F0660F771F881F91505040C1F79E3F13
S113100051052CF7880F911D9695879597F90895AA
S11310105F3FACF0983E9CF0BB278695779567952B
S1131020B79508F4B1609395C1F7BB0F58F711F465
S113103060FFE8CF6F5F7F4F8F4F9F4FE3CF0C94DC
S1131040280716F00C9484090C94E30668940C9415
S1131050DD060E940D07A8F39923C1F3AEF3DF93D5
S1131060CF931F930F93FF92C92FDD2788232AF074
S11310702197660F771F881FDAF720E030E040E8F9
S11310805FEB9FE3883920F0803E38F021968F771C
S11310900E94FE05E0E9F0E004C00E94FE05EDEBCD
S11310A0F0E00E94B8078B01BE01EC01FB2E6F57E4
S11310B071097595771F880B990B0E94A20628E188
S11310C032E741E35FE30E94B808AF2D9801AE0117
S11310D0FF900F911F91CF91DF910E9415060C9400
S11310E0F406FA01DC01AA0FBB1F9B01AC01BF5738
S11310F028F4222733274427507820C0B75190F48E
S1131100AB2F0024469537952795011CA395D2F360
S1131110002071F0220F331F441FB395DAF30ED071
S11311200C94FD0561307105A0E88A07B94630F4D6
S11311309B01AC016627772788279078309621F0A9
S1131140208331834283538308950E94B8080C940A
S1131150F4060E94E60638F00E94ED0620F095237E
S113116011F00C94DD060C94E30611240C9428076A
S11311700E94050770F3959FC1F3950F50E0551F2A
S1131180629FF001729FBB27F00DB11D639FAA27D8
S1131190F00DB11DAA1F649F6627B00DA11D661F27
S11311A0829F2227B00DA11D621F739FB00DA11D48
S11311B0621F839FA00D611D221F749F3327A00D02
S11311C0611D231F849F600D211D822F762F6A2F9E
S11311D011249F5750409AF0F1F088234AF0EE0F03
S11311E0FF1FBB1F661F771F881F91505040A9F730
S11311F09E3F510580F00C94DD060C9428075F3F58
S1131200E4F3983ED4F3869577956795B795F7956B
S1131210E7959F5FC1F7FE2B880F911D96958795E3
S113122097F908950E9426090C94F4060E94ED068D
S113123058F00E94E60640F029F45F3F29F00C9430
S1131240DD0651110C9428070C94E3060E9405074F
S113125068F39923B1F3552391F3951B550BBB27E1
S1131260AA2762177307840738F09F5F5F4F220F26
S1131270331F441FAA1FA9F335D00E2E3AF0E0E81D
S113128032D091505040E695001CCAF72BD0FE2F67
S113129029D0660F771F881FBB1F261737074807FB
S11312A0AB07B0E809F0BB0B802DBF01FF279358B3
S11312B05F4F3AF09E3F510578F00C94DD060C9494
S11312C028075F3FE4F3983ED4F3869577956795B6
S11312D0B795F7959F5FC9F7880F911D96958795E8
S11312E097F90895E1E0660F771F881FBB1F621707
S11312F073078407BA0720F0621B730B840BBA0BC5
S1131300EE1F88F7E09508959F3F31F0915020F447
S1131310879577956795B795880F911D96958795CD
S113132097F90895052E97FB1EF400940E94A909CD
S113133057FD07D00E94B10907FC03D04EF40C946A
S1131340A90950954095309521953F4F4F4F5F4FD8
S1131350089590958095709561957F4F8F4F9F4F1D
S11313600895A1E21A2EAA1BBB1BFD010DC0AA1FE2
S1131370BB1FEE1FFF1FA217B307E407F50720F0FA
S1131380A21BB30BE40BF50B661F771F881F991F75
S11313901A9469F760957095809590959B01AC01BE
S11313A0BD01CF0108958F929F92AF92BF92CF92C9
S11313B0DF92EF92FF92CF93DF93EC016881798102
S11313C08A819B81611571058105910521F464E28F
S11313D079ED8BE597E02DE133EF41E050E00E9499
S11313E0920949015A019B01AC01A7EAB1E40E94A8
S11313F0750A6B017C01ACEEB4EFA50194010E9467
S1131400830ADC01CB018C0D9D1DAE1DBF1DB7FFF2
S113141003C00197A109B04888839983AA83BB8339
S1131420BC01CD019F77DF91CF91FF90EF90DF90CA
S1131430CF90BF90AF909F908F9008958F929F927E
S1131440AF92BF92CF92DF92EF92FF926091000130
S11314507091010180910201909103016115710560
S11314608105910521F464E279ED8BE597E02DE1A6
S113147033EF41E050E00E94920949015A019B0177
S1131480AC01A7EAB1E40E94750A6B017C01ACEEE1
S1131490B4EFA50194010E94830ADC01CB018C0DF9
S11314A09D1DAE1DBF1DB7FF03C00197A109B04824
S11314B08093000190930101A0930201B093030172
S11314C0BC01CD019F77FF90EF90DF90CF90BF904C
S11314D0AF909F908F9008956093000170930101E5
S11314E0809302019093030108950E94880AA59FA6
S11314F0900DB49F900DA49F800D911D112408950B
S1131500B7FF0C94750A0E94750A821B930B089509
S1131510A29FB001B39FC001A39F700D811D112430
S1131520911DB29F700D811D1124911D0895F89491
S1051530FFCFE7
S113153201000000010204081020408000444A4ACD
S11315424A4A3200003C4242225C0000003E4040D3
S113155240403E000042427E7E424200007E4242C1
S113156242423C000000000000000000007E4252A3
S1131572525272000078141212147800007E040889
S113158208047E00007E4A4A4A42420000000000EB
S113159200000000000000181800000000002400F1
S11315A2002400000042000000004200810000000C
S11315B200000081000000181800000000003C2414
S11315C2243C0000007E424242427E00FF8181812F
S11315D2818181FF00001115151FA04040A007045E
S11315E2041F0000000004047E7E000000007A7ADA
S11315F25E5E000000005A5A7E7E00000000181C45
S1131602727E0000007E425252527200007814121E
S113161212147800007E040810207E000078141250
S11316221214780000444A4A4A4A32000002027EF6
S11316327E020200007E4A4A4A4242000000000042
S11316420000000001000200030001000200030088
S105165204008E
S9030000FC
