S01300004D617472697A5F4C6564732E73726563B3
S11300000C9434000C9449000C9449000C9449005D
S11300100C9449000C9449000C9449000C94490038
S11300200C9449000C9449000C9449000C94490028
S11300300C9449000C9449000C9449000C94490018
S11300400C9449000C9449000C9449000C94490008
S11300500C9449000C9449000C9449000C944900F8
S11300600C9449000C94490011241FBECFEFD8E032
S1130070DEBFCDBF11E0A0E0B1E0EEE8F3E002C0E6
S113008005900D92A038B107D9F70E9422010C9473
S1130090C5010C9400000F931F93CF93DF93EC01E1
S11300A000E010E01CC0DA01AE0FBF1F9C919BB9A9
S11300B0DF01AC0FBD1FA20FB31F9C91909595B9A2
S11300C083EF91E00197F1F700C00000319602C080
S11300D0E0E0F0E0E830F10534F30F5F1F4F06175E
S11300E01707B4F3DF91CF911F910F910895EF9209
S11300F0FF920F931F93CF93DF938C017B01C0E09A
S1130100D0E008C09701A80165E070E0CE010E942C
S11301104B002896C931D105ACF3C8E1D0E008C042
S11301209701A80165E070E0CE010E944B0028977A
S1130130DD23B4F7DF91CF911F910F91FF90EF90E2
S11301400895EF92FF920F931F93CF93DF938C0147
S11301507B01C0E0D0E008C09701A80165E070E031
S1130160CE010E944B002896C931D105ACF3C8E1F9
S1130170D0E008C09701A80165E070E0CE010E94BC
S11301804B002897DD23B4F7DF91CF911F910F9196
S1130190FF90EF900895EF92FF920F931F93CF93E8
S11301A0DF937C018B01C0E0D0E008C09801A70177
S11301B064E170E0CE010E944B002196C032D1056B
S11301C0ACF3DF91CF911F910F91FF90EF900895C1
S11301D0EF92FF920F931F93CF93DF937C018B01D8
S11301E0C0E0D0E008C09801A7016AE070E0CE0149
S11301F00E944B002896C830D105ACF3DF91CF9113
S11302001F910F91FF90EF900895EF92FF920F933B
S11302101F93CF93DF937C018B01C0E0D0E008C033
S11302209801A7016AE070E0CE010E944B00289675
S1130230C830D105ACF3DF91CF911F910F91FF909E
S1130240EF900895CF93DF93CDB7DEB7C058D109AF
S11302500FB6F894DEBF0FBECDBF8FEF84B98AB955
S113026087B187B988E0E0E0F1E0DE011196019002
S11302700D928A95E1F788E2E8E0F1E0DE01199653
S113028001900D928A95E1F780E2E0E3F1E0DE016E
S1130290D19601900D928A95E1F780E2E0E5F1E0D4
S11302A0DE01AF5ABF4F01900D928A95E1F788E0C5
S11302B0E0E7F1E0DE01AF58BF4F01900D928A955F
S11302C0E1F788E0E8E7F1E0DE01A758BF4F0190CD
S11302D00D928A95E1F701E010E0E12CF12C14C0B5
S11302E0BE016F5C7F4FCE0101960E94770086B1FC
S11302F0813471F0BE016F5A7F4FCE0101960E9486
S1130300A10086B1813441F0E114F10441F4E8CF55
S1130310EE24E394F12C03C0EE24E394F12CBE010B
S1130320675F7F4FCE0101960E94CB0021C0BE01C2
S11303306F587F4FCE0101960E94E80086B1823447
S113034089F403C086B1813459F0BE0167587F4FE8
S1130350CE0101960E94050186B1843499F702C04A
S113036000E010E086B1813419F40115110519F487
S113037001151105E1F6BE01675F7F4FCE010196BD
S11103800E94CB0000E010E0BFCFF894FFCF46
S113038E0102040810204080007E7E18187E7E0034
S113039E007E7E66667E7E00007E7E60606060000B
S11303AE007E7E16167E7E00000000000000000017
S11303BE00000018180000000000240000240000B3
S11303CE0042000000004200810000000000008195
S11303DE000000181800000000003C24243C00001B
S11303EE007E424242427E00FF818181818181FFF3
S11303FE00001115151FA04040A00704041F0000A3
S9030000FC
