:100000000C9434000C9449000C9449000C94490061
:100010000C9449000C9449000C9449000C9449003C
:100020000C9449000C9449000C9449000C9449002C
:100030000C9449000C9449000C9449000C9449001C
:100040000C9449000C9449000C9449000C9449000C
:100050000C9449000C9449000C9449000C944900FC
:100060000C9449000C94490011241FBECFEFD8E036
:10007000DEBFCDBF12E0A0E0B1E0E8E6FBE002C0E9
:1000800005900D92A430B107D9F70E946E020C942E
:10009000B2050C9400000F931F93CF93DF93EC01F4
:1000A00000E010E01CC0DA01AE0FBF1F9C919BB9AD
:1000B000DF01AC0FBD1FA20FB31F9C91909595B9A6
:1000C00083EF91E00197F1F700C00000319602C084
:1000D000E0E0F0E0E830F10534F30F5F1F4F061762
:1000E0001707B4F3DF91CF911F910F910895EF920D
:1000F000FF920F931F93CF93DF938C017B01C0E09E
:10010000D0E008C09701A80165E070E0CE010E9430
:100110004B002896C931D105ACF3C8E1D0E008C046
:100120009701A80165E070E0CE010E944B0028977E
:10013000DD23B4F7DF91CF911F910F91FF90EF90E6
:100140000895EF92FF920F931F93CF93DF938C014B
:100150007B01C0E0D0E008C09701A80165E070E035
:10016000CE010E944B002896C931D105ACF3C8E1FD
:10017000D0E008C09701A80165E070E0CE010E94C0
:100180004B002897DD23B4F7DF91CF911F910F919A
:10019000FF90EF900895EF92FF920F931F93CF93EC
:1001A000DF937C018B01C0E0D0E008C09801A7017B
:1001B0006AE070E0CE010E944B002196C032D1056A
:1001C000ACF3DF91CF911F910F91FF90EF900895C5
:1001D000EF92FF920F931F93CF93DF937C018B01DC
:1001E00088E088B9C0E0D0E008C09801A70167E0C6
:1001F00070E0CE010E944B002196C035D105ACF3D2
:1002000018B8DF91CF911F910F91FF90EF90089553
:10021000EF92FF920F931F93CF93DF937C018B019B
:10022000C0E0D0E008C09801A7016AE070E0CE010C
:100230000E944B002896C830D105ACF3DF91CF91D6
:100240001F910F91FF90EF900895EF92FF920F93FF
:100250001F93CF93DF937C018B01C0E0D0E008C0F7
:100260009801A7016AE070E0CE010E944B00289639
:10027000C830D105ACF3DF91CF911F910F91FF9062
:10028000EF900895EF92FF920F931F93CF93DF9318
:100290007C018B01C0E0D0E008C09801A7016AE0B2
:1002A00070E0CE010E944B002896C830D105ACF317
:1002B000DF91CF911F910F91FF90EF900895EF92F2
:1002C000FF920F931F93CF93DF937C018B01C0E0CC
:1002D000D0E008C09801A7016AE070E0CE010E945A
:1002E0004B002896C830D105ACF3DF91CF911F9118
:1002F0000F91FF90EF900895EF92FF920F931F934D
:10030000CF93DF937C018B01C0E0D0E008C098015F
:10031000A7016AE070E0CE010E944B002896C83029
:10032000D105ACF3DF91CF911F910F91FF90EF902A
:100330000895EF92FF920F931F93CF93DF937C0169
:100340008B01C0E0D0E008C09801A70164E670E02E
:10035000CE010E944B002896C930D105ACF3DF9145
:10036000CF911F910F91FF90EF900895AF92BF92A0
:10037000CF92DF92EF92FF920F931F93CF93DF9371
:10038000EC015B017A016901BA010E9442018FE32D
:100390009CE90197F1F700C00000B501CE010E9471
:1003A00025018FE39CE90197F1F700C00000B80137
:1003B000CE010E947C018FE39CE90197F1F700C018
:1003C0000000B601CE010E945F018FE39CE9019716
:1003D000F1F700C00000B501CE010E9425018FE3B6
:1003E0009CE90197F1F700C00000B601CE010E9420
:1003F0005F018FE39CE90197F1F700C00000B701AE
:10040000CE010E9442018FE39CE90197F1F700C001
:100410000000DF91CF911F910F91FF90EF90DF903F
:10042000CF90BF90AF900895AF92BF92CF92DF92DE
:10043000EF92FF920F931F93CF93DF93EB015A013B
:10044000690182309105F1F01CF4019771F03BC015
:100450008330910529F1049789F135C0B501CE01AA
:100460000E9425010F5F1F4F02C000E010E0043121
:100470001105A4F328C0B601CE010E9442010F5F0E
:100480001F4F02C000E010E004311105A4F31BC0AF
:10049000B801CE010E945F018FEFE81AF80A02C08E
:1004A000E12CF12C84E1E816F10494F30CC0B701BF
:1004B000CE010E947C010F5F1F4F02C000E010E0E0
:1004C00004311105A4F3DF91CF911F910F91FF909B
:1004D000EF90DF90CF90BF90AF900895CF93DF93D0
:1004E000CDB7DEB7C854D1400FB6F894DEBF0FBE0B
:1004F000CDBF8FEF84B98AB987B187B987B18861D9
:1005000087B988E0E4E0F1E0DE01119601900D92F8
:100510008A95E1F788E5ECE0F1E0DE0119960190BB
:100520000D928A95E1F788E2E4E6F1E0DE01AF5949
:10053000BF4F01900D928A95E1F780E2ECE8F1E07F
:10054000DE01A757BF4F01900D928A95E1F780E237
:10055000ECEAF1E0DE01A755BF4F01900D928A95BC
:10056000E1F788E0ECECF1E0DE01A753BF4F01902A
:100570000D928A95E1F788E0E4EDF1E0DE01AF52FB
:10058000BF4F01900D928A95E1F788E0ECEDF1E024
:10059000DE01A752BF4F01900D928A95E1F788E0E6
:1005A000E4EEF1E0DE01AF51BF4F01900D928A956C
:1005B000E1F788E0ECEEF1E0DE01A751BF4F0190DA
:1005C0000D928A95E1F788E0E4EFF1E0DE01AF50AB
:1005D000BF4F01900D928A95E1F7FE01E750FF4F62
:1005E00080E1DF01282F1D922A95E9F791E09083A1
:1005F0007096DF01282F1D922A95E9F79783709650
:10060000DF01282F1D922A95E9F790E890837096D4
:10061000DF011D928A95E9F7978301E010E0C12C74
:10062000D12C2AC0BE0167577F4FCE0101960E9490
:10063000770086B1813459F4BE01675F7F4FCE01E8
:1006400001960E94E800CC24C394D12C18C0BE01AE
:1006500067557F4FCE0101960E94A10086B181347B
:1006600059F4BE01675F7F4FCE0101960E94E800FA
:10067000CC24C394D12C03C0C114D10499F2E12C31
:10068000F12C36C0BE0167537F4FCE0101960E9408
:10069000080186B1823431F580E188B983EF91E0B9
:1006A0000197F1F700C0000018B8BE016F527F4FEC
:1006B000CE0101960E94080186B1843451F480E194
:1006C00088B9A3EFB1E01197F1F700C0000018B8A6
:1006D00009C086B1813449F76894EE24E2F8F12C20
:1006E00000E010E086B1813419F40115110521F400
:1006F0000115110539F605C00F2EF3E0EF2EF12C90
:10070000F02DB4E0EB16F10409F01DC188E0ECEF28
:10071000F1E0DE01AF5BBE4F01900D928A95E1F7EB
:10072000FE01E75CFE4F88E0DF011D928A95E9F744
:1007300000E010E036C00E94F804DC01CB018370B9
:100740009927AA27B078BB2354F40197A109B109CE
:100750008C6F9F6FAF6FBF6F0196A11DB11DBC0164
:10076000660F771FE1E4F1E0EC0FFD1FE60FF71FC6
:10077000808191810097F9F2F801EE0FFF1F49E3A4
:1007800051E04C0F5D1FE40FF51F91838083E1E47E
:10079000F1E0EC0FFD1FE60FF71F118210820F5FD3
:1007A0001F4F043011053CF26894BB24B4F8B8B86C
:1007B00083EF91E00197F1F700C0000018B8BE0187
:1007C00067507F4FCE0101960E9499018E010F5014
:1007D0001F4F9E0127513F4FAE014F515F4FBE014A
:1007E00067527F4FCE0101960E94B60178010850F2
:1007F00011099E012F513F4FAE0147525F4FBE017D
:100800006F5F7F4FC75CDE4F88819981C953D140AC
:100810000E941402B8B883EF91E00197F1F700C08D
:10082000000018B8BE01675F7E4FCE0101960E949E
:10083000990187019E0127513F4FAE014F515F4FF4
:10084000BE0167527F4FCE0101960E94B60108504B
:1008500011099E012F513F4FAE0147525F4FBE011C
:100860006F5F7F4FC55CDE4F88819981CB53D1404C
:100870000E941402B8B883EF91E00197F1F700C02D
:10088000000018B8BE01675E7E4FCE0101960E943F
:10089000990187019E0127513F4FAE014F515F4F94
:1008A000BE0167527F4FCE0101960E94B6010850EB
:1008B00011099E012F513F4FAE0147525F4FBE01BC
:1008C0006F5F7F4FC35CDE4F88819981CD53D140EC
:1008D0000E941402B8B883EF91E00197F1F700C0CD
:1008E000000018B8BE01675D7E4FCE0101960E94E0
:1008F000990187019E0127513F4FAE014F515F4F34
:10090000BE0167527F4FCE0101960E94B60108508A
:1009100011099E012F513F4FAE0147525F4FBE015B
:100920006F5F7F4FC15CDE4F88819981CF53D1408B
:100930000E941402BFEF21EE44E0B150204040403D
:10094000E1F700C00000BE016F597F4FCE01019654
:100950000E94CB0000E010E08FCE8F929F92AF926A
:10096000BF92CF92DF92EF92FF92CF93DF93EC0191
:10097000688179818A819B81611571058105910565
:1009800021F464E279ED8BE597E02DE133EF41E06E
:1009900050E00E944F0549015A019B01AC01A7EAB2
:1009A000B1E40E946E056B017C01ACEEB4EFA501D1
:1009B00094010E947C05DC01CB018C0D9D1DAE1DB8
:1009C000BF1DB7FF03C00197A109B0488883998371
:1009D000AA83BB83BC01CD019F77DF91CF91FF90AC
:1009E000EF90DF90CF90BF90AF909F908F90089541
:1009F0008F929F92AF92BF92CF92DF92EF92FF922F
:100A000060910001709101018091020190910301B8
:100A1000611571058105910521F464E279ED8BE59D
:100A200097E02DE133EF41E050E00E944F0549018E
:100A30005A019B01AC01A7EAB1E40E946E056B016B
:100A40007C01ACEEB4EFA50194010E947C05DC01B1
:100A5000CB018C0D9D1DAE1DBF1DB7FF03C00197BF
:100A6000A109B0488093000190930101A093020175
:100A7000B0930301BC01CD019F77FF90EF90DF9011
:100A8000CF90BF90AF909F908F900895609300019A
:100A90007093010180930201909303010895052E44
:100AA00097FB1EF400940E94660557FD07D00E9434
:100AB000810507FC03D04EF40C94660550954095D3
:100AC000309521953F4F4F4F5F4F089590958095FA
:100AD000709561957F4F8F4F9F4F08950E94A3059A
:100AE000A59F900DB49F900DA49F800D911D112482
:100AF0000895B7FF0C946E050E946E05821B930B40
:100B00000895A1E21A2EAA1BBB1BFD010DC0AA1F4E
:100B1000BB1FEE1FFF1FA217B307E407F50720F066
:100B2000A21BB30BE40BF50B661F771F881F991FE1
:100B30001A9469F760957095809590959B01AC012A
:100B4000BD01CF010895A29FB001B39FC001A39F33
:100B5000700D811D1124911DB29F700D811D1124F6
:080B6000911D0895F894FFCFE8
:100B680001000000010204081020408000444A4AA5
:100B78004A4A3200003C4242225C0000003E4040AB
:100B880040403E000042427E7E424200007E424299
:100B980042423C000000000000000000007E42527B
:100BA800525272000078141212147800007E040861
:100BB80008047E00007E4A4A4A42420000000000C3
:100BC80000000000007E7E18187E7E00007E7E6693
:100BD800667E7E00007E7E6060606000007E7E161D
:100BE800167E7E00000000000000000000000018D3
:100BF800180000000000240000240000004200004B
:100C08000000420081000000000000810000001880
:100C18001800000000003C24243C0000007E4242F2
:100C280042427E00FF818181818181FF0000111590
:100C3800151FA04040A00704041F00000000040482
:100C48007E7E000000007A7A5E5E000000005A5A3C
:100C58007E7E00000000181C727E00000100020069
:040C68000300040081
:00000001FF
