:100000000C9434000C9449000C9449000C94490061
:100010000C9449000C9449000C9449000C9449003C
:100020000C9449000C9449000C9449000C9449002C
:100030000C9449000C9449000C9449000C9449001C
:100040000C9449000C9449000C9449000C9449000C
:100050000C9449000C9449000C9449000C944900FC
:100060000C9449000C94490011241FBECFEFD8E036
:10007000DEBFCDBF11E0A0E0B1E0E0E1F4E002C0FE
:1000800005900D92A83DB107D9F70E9442010C944A
:1000900006020C9400000F931F93CF93DF93EC01A3
:1000A00000E010E01CC0DA01AE0FBF1F9C919BB9AD
:1000B000DF01AC0FBD1FA20FB31F9C91909595B9A6
:1000C00083EF91E00197F1F700C00000319602C084
:1000D000E0E0F0E0E830F10534F30F5F1F4F061762
:1000E0001707B4F3DF91CF911F910F910895EF920D
:1000F000FF920F931F93CF93DF938C017B01C0E09E
:10010000D0E008C09701A80165E070E0CE010E9430
:100110004B002896C931D105ACF3C8E1D0E008C046
:100120009701A80165E070E0CE010E944B0028977E
:10013000DD23B4F7DF91CF911F910F91FF90EF90E6
:100140000895EF92FF920F931F93CF93DF938C014B
:100150007B01C0E0D0E008C09701A80165E070E035
:10016000CE010E944B002896C931D105ACF3C8E1FD
:10017000D0E008C09701A80165E070E0CE010E94C0
:100180004B002897DD23B4F7DF91CF911F910F919A
:10019000FF90EF900895EF92FF920F931F93CF93EC
:1001A000DF937C018B01C0E0D0E008C09801A7017B
:1001B0006AE070E0CE010E944B002196C032D1056A
:1001C000ACF3DF91CF911F910F91FF90EF900895C5
:1001D000EF92FF920F931F93CF93DF937C018B01DC
:1001E00088E088B9C0E0D0E008C09801A7016AE0C3
:1001F00070E0CE010E944B002196C035D105ACF3D2
:1002000018B8DF91CF911F910F91FF90EF90089553
:10021000EF92FF920F931F93CF93DF937C018B019B
:10022000C0E0D0E008C09801A7016AE070E0CE010C
:100230000E944B002896C830D105ACF3DF91CF91D6
:100240001F910F91FF90EF900895EF92FF920F93FF
:100250001F93CF93DF937C018B01C0E0D0E008C0F7
:100260009801A7016AE070E0CE010E944B00289639
:10027000C830D105ACF3DF91CF911F910F91FF9062
:10028000EF900895CF93DF93CDB7DEB7C85DD10966
:100290000FB6F894DEBF0FBECDBF8FEF84B98AB919
:1002A00087B187B987B1886187B988E0E0E0F1E07C
:1002B000DE01119601900D928A95E1F788E5E8E05C
:1002C000F1E0DE01199601900D928A95E1F788E23E
:1002D000E0E6F1E0DE01AF59BF4F01900D928A9543
:1002E000E1F780E2E8E8F1E0DE01A757BF4F0190B7
:1002F0000D928A95E1F780E2E8EAF1E0DE01A75588
:10030000BF4F01900D928A95E1F788E0E8ECF1E0AB
:10031000DE01A753BF4F01900D928A95E1F788E067
:10032000E0EDF1E0DE01AF52BF4F01900D928A95F2
:10033000E1F701E010E0E12CF12C14C0BE01675799
:100340007F4FCE0101960E94770086B1813471F013
:10035000BE0167557F4FCE0101960E94A10086B174
:10036000813441F0E114F10441F4E8CFEE24E39448
:10037000F12C03C0EE24E394F12CBE01675F7F4FA4
:10038000CE0101960E94E80034C0BE0167537F4F42
:10039000CE0101960E94080186B1823421F580E1E8
:1003A00088B983EF91E00197F1F700C0000018B819
:1003B0000DC080E188B983EF91E00197F1F700C0AB
:1003C000000018B810C086B1813459F0BE016F52D8
:1003D0007F4FCE0101960E94250186B1843499F7A2
:1003E000E8CF00E010E086B1813419F40115110561
:1003F00019F40115110549F6BE016F597F4FCE0161
:1004000001960E94CB0000E010E0ACCFF894FFCF43
:10041000010204081020408000444A4A4A4A32003F
:10042000003C4242225C0000003E404040403E0012
:100430000042427E7E424200007E424242423C00F6
:100440000000000000000000007E42525252720084
:100450000078141212147800007E040808047E004C
:10046000007E4A4A4A4242000000000000000000AC
:10047000007E7E18187E7E00007E7E66667E7E0090
:10048000007E7E6060606000007E7E16167E7E00CC
:10049000000000000000000000000018180000002C
:1004A0000000240000240000004200000000420080
:1004B000810000000000008100000018180000000A
:1004C00000003C24243C0000007E424242427E0068
:1004D000FF818181818181FF00001115151FA040DE
:0804E00040A00704041F000006
:00000001FF
