:100000000C9434000C9449000C9449000C94490061
:100010000C9449000C9449000C9449000C9449003C
:100020000C9449000C9449000C9449000C9449002C
:100030000C9449000C9449000C9449000C9449001C
:100040000C9449000C9449000C9449000C9449000C
:100050000C9449000C9449000C9449000C944900FC
:100060000C9449000C94490011241FBECFEFD8E036
:10007000DEBFCDBF11E0A0E0B1E0E0EBF1E002C0F7
:1000800005900D92A033B107D9F70E9460000C943F
:10009000D6000C9400008AB182608AB98AB18E7F42
:1000A0008AB91092C00088E98093C10086E08093ED
:1000B000C20087E690E09093C5008093C400089545
:1000C000CF93DF93CDB7DEB7E0970FB6F894DEBFDE
:1000D0000FBECDBF8FEF84B987B18F6187B98AB169
:1000E000806E8AB98AB18AB90E944B0088E0E0E04C
:1000F000F1E0DE01119601900D928A95E1F788E218
:10010000E8E0F1E0DE01199601900D928A95E1F7A1
:1001100089B18430E9F389B18630D1F789B186306D
:10012000E9F340E050E03CC09C018530910548F483
:100130001BB8E1E0F0E0EC0FFD1FE80FF91FE081D4
:10014000E8B92530310548F018B8E1E0F0E0EC0FEF
:10015000FD1FE80FF91F20812BB9FA01E80FF91FE5
:1001600029E030E02C0F3D1FE20FF31F2081209586
:1001700025B9E3EFF1E03197F1F700C000000196F7
:1001800002C080E090E08830910574F26F5F7F4F8D
:1001900002C060E070E0623371059CF34F5F5F4F17
:1001A00040325105B4F315B81BB8B2CFF894FFCF65
:1001B0000102040810204080007E7E18187E7E0018
:1001C000007E7E66667E7E00007E7E6060606000EF
:1001D000007E7E16167E7E000000000000000000FB
:00000001FF
