:100000000C9434000C9449000C9449000C94490061
:100010000C9449000C9449000C9449000C9449003C
:100020000C9449000C9449000C9449000C9449002C
:100030000C9449000C9449000C9449000C9449001C
:100040000C9449000C9449000C9449000C9449000C
:100050000C9449000C9449000C9449000C944900FC
:100060000C9449000C94490011241FBECFEFD8E036
:10007000DEBFCDBF11E0A0E0B1E0E6EFFAE002C0E4
:1000800005900D92AC3AB107D9F70E944E020C943C
:1000900079050C9400000F931F93CF93DF93EC012D
:1000A00000E010E01CC0DA01AE0FBF1F9C919BB9AD
:1000B000DF01AC0FBD1FA20FB31F9C91909595B9A6
:1000C00083EF91E00197F1F700C00000319602C084
:1000D000E0E0F0E0E830F10534F30F5F1F4F061762
:1000E0001707B4F3DF91CF911F910F910895EF920D
:1000F000FF920F931F93CF93DF938C017B01C0E09E
:10010000D0E008C09701A80165E070E0CE010E9430
:100110004B002896C931D105ACF3C8E1D0E008C046
:100120009701A80165E070E0CE010E944B0028977E
:10013000DD23B4F7DF91CF911F910F91FF90EF90E6
:100140000895EF92FF920F931F93CF93DF938C014B
:100150007B01C0E0D0E008C09701A80165E070E035
:10016000CE010E944B002896C931D105ACF3C8E1FD
:10017000D0E008C09701A80165E070E0CE010E94C0
:100180004B002897DD23B4F7DF91CF911F910F919A
:10019000FF90EF900895EF92FF920F931F93CF93EC
:1001A000DF937C018B01C0E0D0E008C09801A7017B
:1001B0006AE070E0CE010E944B002196C032D1056A
:1001C000ACF3DF91CF911F910F91FF90EF900895C5
:1001D000EF92FF920F931F93CF93DF937C018B01DC
:1001E000C0E0D0E008C09801A7016AE070E0CE014D
:1001F0000E944B002896C830D105ACF3DF91CF9117
:100200001F910F91FF90EF900895EF92FF920F933F
:100210001F93CF93DF937C018B01C0E0D0E008C037
:100220009801A7016AE070E0CE010E944B00289679
:10023000C830D105ACF3DF91CF911F910F91FF90A2
:10024000EF900895EF92FF920F931F93CF93DF9358
:100250007C018B01C0E0D0E008C09801A7016AE0F2
:1002600070E0CE010E944B002896C830D105ACF357
:10027000DF91CF911F910F91FF90EF900895EF9232
:10028000FF920F931F93CF93DF937C018B01C0E00C
:10029000D0E008C09801A7016AE070E0CE010E949A
:1002A0004B002896C830D105ACF3DF91CF911F9158
:1002B0000F91FF90EF900895EF92FF920F931F938D
:1002C000CF93DF937C018B01C0E0D0E008C09801A0
:1002D000A7016AE070E0CE010E944B002896C8306A
:1002E000D105ACF3DF91CF911F910F91FF90EF906B
:1002F0000895EF92FF920F931F93CF93DF937C01AA
:100300008B01C0E0D0E008C09801A70164E670E06E
:10031000CE010E944B002896C930D105ACF3DF9185
:10032000CF911F910F91FF90EF900895AF92BF92E0
:10033000CF92DF92EF92FF920F931F93CF93DF93B1
:10034000EC015B017A016901BA010E9422018FE38D
:100350009CE90197F1F700C00000B501CE010E94B1
:1003600005018FE39CE90197F1F700C00000B80197
:10037000CE010E945C018FE39CE90197F1F700C078
:100380000000B601CE010E943F018FE39CE9019776
:10039000F1F700C00000B501CE010E9405018FE316
:1003A0009CE90197F1F700C00000B601CE010E9460
:1003B0003F018FE39CE90197F1F700C00000B7010E
:1003C000CE010E9422018FE39CE90197F1F700C062
:1003D0000000DF91CF911F910F91FF90EF90DF9080
:1003E000CF90BF90AF900895AF92BF92CF92DF921F
:1003F000EF92FF920F931F93CF93DF93EB015A017C
:10040000690182309105F1F01CF4019771F03BC055
:100410008330910529F1049789F135C0B501CE01EA
:100420000E9405010F5F1F4F02C000E010E0043181
:100430001105A4F328C0B601CE010E9422010F5F6E
:100440001F4F02C000E010E004311105A4F31BC0EF
:10045000B801CE010E943F018FEFE81AF80A02C0EE
:10046000E12CF12C84E1E816F10494F30CC0B701FF
:10047000CE010E945C010F5F1F4F02C000E010E040
:1004800004311105A4F3DF91CF911F910F91FF90DB
:10049000EF90DF90CF90BF90AF900895CF93DF9310
:1004A000CDB7DEB7C05FD1090FB6F894DEBF0FBE7F
:1004B000CDBF8FEF84B98AB987B187B987B1886119
:1004C00087B988E0E4E0F1E0DE01119601900D9239
:1004D0008A95E1F788E2ECE0F1E0DE0119960190FF
:1004E0000D928A95E1F780E2E4E3F1E0DE01D19636
:1004F00001900D928A95E1F780E2E4E5F1E0DE01FA
:10050000AF5ABF4F01900D928A95E1F788E0E4E77A
:10051000F1E0DE01AF58BF4F01900D928A95E1F7EF
:1005200088E0ECE7F1E0DE01A758BF4F01900D92A3
:100530008A95E1F788E0E4E8F1E0DE01AF57BF4FCC
:1005400001900D928A95E1F788E0ECE8F1E0DE0198
:10055000A757BF4F01900D928A95E1F788E0E4E933
:10056000F1E0DE01AF56BF4F01900D928A95E1F7A1
:1005700088E0ECE9F1E0DE01A756BF4F01900D9253
:100580008A95E1F7FE01EF55FF4F80E1DF01282F4B
:100590001D922A95E9F791E090837096DF01282F4C
:1005A0001D922A95E9F797837096DF01282F1D92F7
:1005B0002A95E9F790E890837096DF011D928A955D
:1005C000E9F7978301E010E0C12CD12C14C0BE01E3
:1005D0006F5C7F4FCE0101960E94770086B1813417
:1005E00071F0BE016F5A7F4FCE0101960E94A100AB
:1005F00086B1813441F0C114D10441F4E8CFCC2458
:10060000C394D12C03C0CC24C394D12CE12CF12C65
:1006100036C0BE016F587F4FCE0101960E94E800A0
:1006200086B1823431F580E188B983EF91E001979A
:10063000F1F700C0000018B8BE0167587F4FCE0127
:1006400001960E94E80086B1843451F480E188B9B3
:10065000A3EFB1E01197F1F700C0000018B809C08E
:1006600086B1813449F76894EE24E2F8F12C00E079
:1006700010E086B1813419F40115110521F401153A
:10068000110539F605C00F2EF3E0EF2EF12CF02DF9
:10069000B4E0EB16F10409F01DC188E0E4EAF1E0F2
:1006A000DE01A751BF4F01900D928A95E1F7FE013F
:1006B000EF51FF4F88E0DF011D928A95E9F700E0D6
:1006C00010E036C00E940005DC01CB018370992741
:1006D000AA27B078BB2354F40197A109B1098C6F04
:1006E0009F6FAF6FBF6F0196A11DB11DBC01660F5B
:1006F000771FE9EEF0E0EC0FFD1FE60FF71F80819A
:1007000091810097F9F2F801EE0FFF1F41EE50E0E2
:100710004C0F5D1FE40FF51F91838083E9EEF0E03D
:10072000EC0FFD1FE60FF71F118210820F5F1F4FA6
:10073000043011053CF26894BB24B4F8B8B883EFD8
:1007400091E00197F1F700C0000018B8BE016F55A5
:100750007F4FCE0101960E9479018E0107561F4FEF
:100760009E012F563F4FAE0147575F4FBE016F5757
:100770007F4FCE0101960E94960178010850110921
:100780009E0127573F4FAE014F575F4FBE016F5F2E
:100790007F4FCF51DF4F88819981C15ED0400E9449
:1007A000F401B8B883EF91E00197F1F700C00000C1
:1007B00018B8BE016F547F4FCE0101960E94790197
:1007C00087019E012F563F4FAE0147575F4FBE0135
:1007D0006F577F4FCE0101960E9496010850110974
:1007E0009E0127573F4FAE014F575F4FBE016F5FCE
:1007F0007F4FCD51DF4F88819981C35ED0400E94E9
:10080000F401B8B883EF91E00197F1F700C0000060
:1008100018B8BE016F537F4FCE0101960E94790137
:1008200087019E012F563F4FAE0147575F4FBE01D4
:100830006F577F4FCE0101960E9496010850110913
:100840009E0127573F4FAE014F575F4FBE016F5F6D
:100850007F4FCB51DF4F88819981C55ED0400E9488
:10086000F401B8B883EF91E00197F1F700C0000000
:1008700018B8BE016F527F4FCE0101960E947901D8
:1008800087019E012F563F4FAE0147575F4FBE0174
:100890006F577F4FCE0101960E94960108501109B3
:1008A0009E0127573F4FAE014F575F4FBE016F5F0D
:1008B0007F4FC951DF4F88819981C75ED0400E9428
:1008C000F401BFEF21EE44E0B15020404040E1F799
:1008D00000C00000BE01675F7F4FCE0101960E94FD
:1008E000CB0000E010E087CE052E97FB1EF40094AD
:1008F0000E948B0457FD07D00E94930407FC03D08D
:100900004EF40C948B0450954095309521953F4FB3
:100910004F4F5F4F089590958095709561957F4FEB
:100920008F4F9F4F0895A1E21A2EAA1BBB1BFD01FA
:100930000DC0AA1FBB1FEE1FFF1FA217B307E407BE
:10094000F50720F0A21BB30BE40BF50B661F771F16
:10095000881F991F1A9469F76095709580959095F6
:100960009B01AC01BD01CF0108958F929F92AF9280
:10097000BF92CF92DF92EF92FF92CF93DF93EC0181
:10098000688179818A819B81611571058105910555
:1009900021F464E279ED8BE597E02DE133EF41E05E
:1009A00050E00E94740449015A019B01AC01A7EA7E
:1009B000B1E40E9457056B017C01ACEEB4EFA501D8
:1009C00094010E946505DC01CB018C0D9D1DAE1DBF
:1009D000BF1DB7FF03C00197A109B0488883998361
:1009E000AA83BB83BC01CD019F77DF91CF91FF909C
:1009F000EF90DF90CF90BF90AF909F908F90089531
:100A00008F929F92AF92BF92CF92DF92EF92FF921E
:100A100060910001709101018091020190910301A8
:100A2000611571058105910521F464E279ED8BE58D
:100A300097E02DE133EF41E050E00E94740449015A
:100A40005A019B01AC01A7EAB1E40E9457056B0172
:100A50007C01ACEEB4EFA50194010E946505DC01B8
:100A6000CB018C0D9D1DAE1DBF1DB7FF03C00197AF
:100A7000A109B0488093000190930101A093020165
:100A8000B0930301BC01CD019F77FF90EF90DF9001
:100A9000CF90BF90AF909F908F900895609300018A
:100AA00070930101809302019093030108950E94C5
:100AB0006A05A59F900DB49F900DA49F800D911D78
:100AC00011240895B7FF0C9457050E945705821B07
:100AD000930B0895A29FB001B39FC001A39F700D17
:100AE000811D1124911DB29F700D811D1124911D36
:060AF0000895F894FFCF09
:100AF600010000000102040810204080007E7E18DC
:100B0600187E7E00007E7E66667E7E00007E7E60AB
:100B160060606000007E7E16167E7E00000000008B
:100B2600000000000000001818000000000024006B
:100B36000024000000420000000042008100000086
:100B460000000081000000181800000000003C248E
:100B5600243C0000007E424242427E00FF818181A9
:100B6600818181FF00001115151FA04040A00704D8
:100B7600041F0000000004047E7E000000007A7A54
:100B86005E5E000000005A5A7E7E00000000181CBF
:0C0B9600727E0000010002000300040059
:00000001FF
