:02000000F32CDF
:10000600831203132230FC00F801F901FA01FB0107
:10001600FC03031939280310FB0CFA0CF90CF80C35
:10002600F30CF20CF10CF00C031C0B28FC03031967
:100036002B287408F80775080318750FF907760852
:100046000318760FFA0777080318770FFB070F28B0
:100056007408F80775080318750FF907760803186A
:0E006600760FFA0777080318770FFB070800DC
:10007400403083120313F0001F30F100F201F3014A
:02008400080072
:1000860083120313BA03BA033A08003C0318502834
:10009600BA0300000000000047280000000000002E
:0600A6000000000008004C
:1000AC0083120313FB01FA01F901F801A001730D8E
:1000BC00F80D7408F8027508031C750FF902760820
:1000CC00031C760FFA027708031C770FFB02000162
:1000DC00031C0130A002F30D0730FC00730DF80D6A
:1000EC00F90DFA0DFB0DA00D7408731C8F28F80286
:1000FC007508031C750FF9027608031C760FFA02BB
:10010C007708031C770FFB020001031C0130A002CF
:10011C00A028F80775080318750FF9077608031857
:10012C00760FFA0777080318770FFB0700010318FF
:10013C000130A007F30DFC0B7428720DF80DF90DAE
:10014C00FA0DFB0DA00D7408731CBE28F80275087F
:10015C00031C750FF9027608031C760FFA02770858
:10016C00031C770FFB020001031C0130A002CF28F7
:10017C00F80775080318750FF90776080318760F3A
:10018C00FA0777080318770FFB07000103180130F3
:10019C00A007F20D0730FC00720DF80DF90DFA0DE9
:1001AC00FB0DA00D7408721CED28F8027508031CD9
:1001BC00750FF9027608031C760FFA027708031CF8
:1001CC00770FFB020001031C0130A002FE28F80788
:1001DC0075080318750FF90776080318760FFA07D8
:1001EC0077080318770FFB07000103180130A007ED
:1001FC00F20DFC0BD228710DF80DF90DFA0DFB0D5B
:10020C00A00D7408721C1C29F8027508031C750FCC
:10021C00F9027608031C760FFA027708031C770F95
:10022C00FB020001031C0130A0022D29F807750800
:10023C000318750FF90776080318760FFA07770875
:10024C000318770FFB07000103180130A007F10D0D
:10025C000730FC00710DF80DF90DFA0DFB0DA00D1A
:10026C007408711C4B29F8027508031C750FF902F0
:10027C007608031C760FFA027708031C770FFB0233
:10028C000001031C0130A0025C29F8077508031853
:10029C00750FF90776080318760FFA077708031815
:1002AC00770FFB07000103180130A007F10DFC0BC1
:1002BC003029700DF80DF90DFA0DFB0DA00D740819
:1002CC00711C7A29F8027508031C750FF90276085F
:1002DC00031C760FFA027708031C770FFB02000150
:1002EC00031C0130A0028B29F80775080318750F41
:1002FC00F90776080318760FFA0777080318770FB3
:10030C00FB07000103180130A007F00D0730FC00BB
:10031C00700DF80DF90DFA0DFB0DA00D7408701C85
:10032C00A929F8027508031C750FF9027608031C3D
:10033C00760FFA027708031C770FFB020001031CEF
:10034C000130A002BA29F80775080318750FF907D0
:10035C0076080318760FFA0777080318770FFB0750
:10036C00000103180130A007F00DFC0B8E2970184A
:10037C00CD297408F80775080318750FF907760866
:10038C000318760FFA0777080318770FFB07080096
:10039C0083120313F801F9011030FC00710DF80DF4
:1003AC00F90D7408F8027508031C750FF90203188F
:1003BC00E6297408F80775080318750FF907031078
:0A03CC00F00DF10DFC0BD429080020
:1003D6003A20E830F4000330F500F601F701032077
:1003E6007008B6007108B7007208B8007308B90043
:1003F6002E08F4002F08F500F601F70156207008C4
:10040600B6007108B7007208B8007308B900700822
:10041600F5007108F6007208F7007308F800F80C8A
:10042600F70CF60CF50CF813F80CF70CF60CF50CAB
:10043600F8137508F0007608F1007708F2007808DE
:10044600F300F30CF20CF10CF00CF3137008B2008D
:100456007108B3003A203008F4003108F500F601BF
:10046600F70103203208F9003308FA00FB01FC010A
:100476000330F8007908F4007A08F5007B08F600E6
:100486007C08F700780803194F2AF40DF50DF60DD0
:10049600F70D7410FF3E462A56207008B600710804
:1004A600B7007208B8007308B9000A30F4000030CB
:1004B600F5003208F0003308F100CE217008B200D2
:1004C6007108B30000307102031D6B2A03307002FD
:1004D60003186E2ABB2A240884003908003C031D31
:1004E6007E2A3808003C031D7E2A3708003C031D7F
:1004F6007E2A3608003C0318B92A250880043308EA
:100506000319952AB401B50100303502031D8D2A61
:10051600330834020318952ABA014320B40A031992
:10052600B50A872A3208BA00432023088005330813
:100536000319AD2AB401B50100303502031DA52A01
:10054600330834020318AD2ABA014320B40A03194A
:10055600B50A9F2A3208BA0043200130B602031CAE
:10056600B702031CB802031CB902702A23088005CF
:0205760008007B
:10057800C83083120313AE000530AF002C08B0005A
:080588002D08B100EB21080071
:10059000753083120313AE000530AF002C08B00095
:0805A0002D08B100EB21080059
:1005A800EE3083120313AE000130AF002C08B00008
:0805B8002D08B100EB21080041
:1005C000203083120313AE000630AF002C08B000B9
:0805D0002D08B100EB21080029
:1005D800B83083120313AE000730AF002C08B00008
:0805E8002D08B100EB21080011
:1005F000E03083120313AE000630AF002C08B000C9
:080600002D08B100EB210800F8
:100608007D3083120313AE000630AF002C08B00013
:080618002D08B100EB210800E0
:10062000173083120313AE000430AF002C08B00063
:080630002D08B100EB210800C8
:10063800F73083120313AE00AF012C08B0002D0869
:06064800B100EB210800E7
:10064E004A3083120313AE000130AF002C08B00005
:08065E002D08B100EB2108009A
:10066600023083120313FC004930FD00FD0B392BC9
:0A067600FC0B392B00000000080007
:10068000B83083120313AE000130AF002C08B00065
:080690002D08B100EB21080068
:10069800263083120313AE000130AF002C08B000DF
:0806A8002D08B100EB21080050
:0E06B0008312031322088A002108820008002A
:1006BE0083120313AE01AF013230B0000030B1002F
:0406CE00EB21080014
:1006D2006E3083120313AE000230AF002C08B0005C
:0806E2002D08B100EB21080016
:1006EA00883083120313AE000130AF002C08B0002B
:0806FA002D08B100EB210800FE
:100702002C3083120313AC000130AD00D4225F23DE
:100712002C30AC000130AD00D4225F235830AC0045
:100722000230AD00D4225F232C30AC000130AD008A
:10073200D4225F232C30AC000130AD00D4225F23E1
:100742005830AC000230AD00D4225F232C30AC0014
:100752000130AD0069235F232C30AC000130AD00C5
:10076200D4225F232C30AC000130AD00D4225F23B1
:100772002C30AC000130AD0040235F232C30AC00A4
:100782000130AD0075235F232C30AC000130AD0089
:1007920040235F235830AC000230AD00D4225F23E7
:1007A2002C30AC000130AD00D4225F232C30AC00E1
:1007B2000130AD00D4225F235830AC000230AD00CE
:1007C200D4225F232C30AC000130AD00D4225F2351
:1007D2002C30AC000130AD00D4225F235830AC0085
:1007E2000230AD00D4225F232C30AC000130AD00CA
:1007F200D4225F232C30AC000130AD0040235F23B4
:100802002C30AC000130AD0075235F232C30AC00DE
:100812000130AD0040235F232C30AC000130AD002D
:1008220075235F232C30AC000130AD0027235F23FA
:0E0832005830AC000230AD0027235F230800D1
:1008400083120313AB012708F1000130F000710897
:1008500003192E2CF00D7010FF3E282C7008AA00F2
:100860002608840070080005F10071080130031D9E
:100870000030F0002908F0060319562C2808003C27
:100880000318462C33233323A8033E2C2608840068
:100890002A080005F10071080130031D0030F00046
:1008A0002908F0060319562CFF30AB002B08F00086
:0208B00008003E
:1008B200BA3083120313AE000230AF00FA30B00038
:0608C200B101EB2108006A
:1008C800933083120313AE000230AF00FA30B00049
:0608D800B101EB21080054
:1008DE0058238A110A128000840AA10A0319A20A57
:0808EE00F003031D6F2C08004C
:1008F6002C3083120313AC000130AD001C232C30C6
:10090600AC000130AD0027235830AC000230AD00FA
:1009160027235830AC000230AD0027238A30AC00C4
:100926000230AD004C232C30AC000130AD00272343
:100936002C30AC000130AD0027232C30AC00013048
:10094600AD001C232C30AC000130AD001C238A30D6
:0A095600AC000230AD004C23080095
:10096000831203132608AC002708AD00C82226080E
:10097000AC002708AD00BC222608AC002708AD005B
:10098000E0222608AC002708AD0004232608AC00AE
:100990002708AD00F8222608AC002708AD00EC229D
:0C09A0002608AC002708AD00102308005A
:1009AC00831203132608A4002708F1000130F0007D
:1009BC0071080319E52CF00D7010FF3EDF2C700848
:1009CC00A500F0097008A300803026078400700889
:0A09DC0080058413700880050800F0
:1009E6008316031788018901831287138813FF3042
:1009F60083160313850007308312A6000330A70071
:100A0600D6248230A600A701B0240630A600A7018E
:100A16000130A8000130A900202470080319252DF3
:100A2600061C252D7B240330FB008A30FC00553044
:100A3600FD00FD0B1C2DFC0B1C2DFB0B1C2D0000C3
:100A46000000132D0630A6000130A7000130A800D3
:100A56000130A900202470080319352DC830AC00D8
:100A6600AD0140230630A6000230A7000130A800E1
:100A76000130A900202470080319412D0630A60074
:100A86000330A7000130A8000130A9002024700817
:100A96000319512D861D512D81234D2D0630A6009B
:100AA6000430A7000130A8000130A90020247008F6
:100AB60003196F2D061E6F2D81230630FB001330A0
:100AC600FC00AD30FD00FD0B662DFC0B662DFB0B0F
:100AD600662D000000005D2D0630A6000530A7003B
:100AE6000130A8000130A9002024700803197E2DCA
:100AF600861E7E2D7B2D0630A6000630A70001300F
:100B0600A8000130A9002024700803198B2D592450
:100B1600061F8E2D8B2D0630A6000730A70001304C
:100B2600A8000130A9002024700803199B2D642415
:0A0B3600861F9E2D9B2D082D9F2D7C
:04400E00F22F000786
:00000001FF
