:02000000E82DE9
:10000600403083120313F0001F30F100F201F301B8
:020016000800E0
:10001800831203132230FC00F801F901FA01FB01F5
:10002800FC03031942280310FB0CFA0CF90CF80C1A
:10003800F30CF20CF10CF00C031C1428FC0303194C
:1000480034287408F80775080318750FF907760837
:100058000318760FFA0777080318770FFB07182895
:100068007408F80775080318750FF9077608031858
:0E007800760FFA0777080318770FFB070800CA
:1000860083120313FB01FA01F901F801A001730DB4
:10009600F80D7408F8027508031C750FF902760846
:1000A600031C760FFA027708031C770FFB02000188
:1000B600031C0130A002F30D0730FC00730DF80D90
:1000C600F90DFA0DFB0DA00D7408731C7C28F802BF
:1000D6007508031C750FF9027608031C760FFA02E1
:1000E6007708031C770FFB020001031C0130A002F6
:1000F6008D28F80775080318750FF9077608031891
:10010600760FFA0777080318770FFB070001031825
:100116000130A007F30DFC0B6128720DF80DF90DE7
:10012600FA0DFB0DA00D7408731CAB28F8027508B8
:10013600031C750FF9027608031C760FFA0277087E
:10014600031C770FFB020001031C0130A002BC2830
:10015600F80775080318750FF90776080318760F60
:10016600FA0777080318770FFB0700010318013019
:10017600A007F20D0730FC00720DF80DF90DFA0D0F
:10018600FB0DA00D7408721CDA28F8027508031C12
:10019600750FF9027608031C760FFA027708031C1E
:1001A600770FFB020001031C0130A002EB28F807C1
:1001B60075080318750FF90776080318760FFA07FE
:1001C60077080318770FFB07000103180130A00713
:1001D600F20DFC0BBF28710DF80DF90DFA0DFB0D94
:1001E600A00D7408721C0929F8027508031C750F06
:1001F600F9027608031C760FFA027708031C770FBC
:10020600FB020001031C0130A0021A29F807750839
:100216000318750FF90776080318760FFA0777089B
:100226000318770FFB07000103180130A007F10D33
:100236000730FC00710DF80DF90DFA0DFB0DA00D40
:100246007408711C3829F8027508031C750FF90229
:100256007608031C760FFA027708031C770FFB0259
:100266000001031C0130A0024929F807750803188C
:10027600750FF90776080318760FFA07770803183B
:10028600770FFB07000103180130A007F10DFC0BE7
:100296001D29700DF80DF90DFA0DFB0DA00D740852
:1002A600711C6729F8027508031C750FF902760898
:1002B600031C760FFA027708031C770FFB02000176
:1002C600031C0130A0027829F80775080318750F7A
:1002D600F90776080318760FFA0777080318770FD9
:1002E600FB07000103180130A007F00D0730FC00E2
:1002F600700DF80DF90DFA0DFB0DA00D7408701CAC
:100306009629F8027508031C750FF9027608031C76
:10031600760FFA027708031C770FFB020001031C15
:100326000130A002A729F80775080318750FF90709
:1003360076080318760FFA0777080318770FFB0776
:10034600000103180130A007F00DFC0B7B29701883
:10035600BA297408F80775080318750FF90776089F
:100366000318760FFA0777080318770FFB070800BC
:1003760083120313F801F9011030FC00710DF80D1A
:10038600F90D7408F8027508031C750FF9020318B5
:10039600D3297408F80775080318750FF9070310B1
:0A03A600F00DF10DFC0BC129080059
:1003B00083120313BA03BA033A08003C0318E52971
:1003C000BA03000000000000DC290000000000006B
:0603D0000000000008001F
:1003D6000320E830F4000330F500F601F7010C20A5
:1003E6007008B6007108B7007208B8007308B90043
:1003F6002E08F4002F08F500F601F70143207008D7
:10040600B6007108B7007208B8007308B900700822
:10041600F5007108F6007208F7007308F800F80C8A
:10042600F70CF60CF50CF813F80CF70CF60CF50CAB
:10043600F8137508F0007608F1007708F2007808DE
:10044600F300F30CF20CF10CF00CF3137008B2008D
:100456007108B30003203008F4003108F500F601F6
:10046600F7010C203208F9003308FA00FB01FC0101
:100476000330F8007908F4007A08F5007B08F600E6
:100486007C08F700780803194F2AF40DF50DF60DD0
:10049600F70D7410FF3E462A43207008B600710817
:1004A600B7007208B8007308B9000A30F4000030CB
:1004B600F5003208F0003308F100BB217008B200E5
:1004C6007108B30000307102031D6B2A03307002FD
:1004D60003186E2ABB2A240884003908003C031D31
:1004E6007E2A3808003C031D7E2A3708003C031D7F
:1004F6007E2A3608003C0318B92A250880043308EA
:100506000319952AB401B50100303502031D8D2A61
:10051600330834020318952ABA01D821B40A0319FC
:10052600B50A872A3208BA00D8212308800533087D
:100536000319AD2AB401B50100303502031DA52A01
:10054600330834020318AD2ABA01D821B40A0319B4
:10055600B50A9F2A3208BA00D8210130B602031C18
:10056600B702031CB802031CB902702A23088005CF
:0205760008007B
:0E0578008312031322088A0021088200080063
:100586006E3083120313AE000230AF002C08B000A9
:080596002D08B100EB21080063
:10059E004A3083120313AE000130AF002C08B000B6
:0805AE002D08B100EB2108004B
:1005B600023083120313FC004930FD00FD0BE12AD3
:0A05C600FC0BE12A00000000080011
:1005D000B83083120313AE000130AF002C08B00016
:0805E0002D08B100EB21080019
:1005E800883083120313AE000130AF002C08B0002E
:0805F8002D08B100EB21080001
:1006000083120313AE01AF013230B0000030B100ED
:04061000EB210800D2
:10061400EE3083120313AE000130AF002C08B0009B
:080624002D08B100EB210800D4
:10062C00723083120313AE000130AF002C08B000FF
:08063C002D08B100EB210800BC
:10064400F73083120313AE00AF012C08B0002D085D
:06065400B100EB210800DB
:10065A00263083120313AE000130AF002C08B0001D
:08066A002D08B100EB2108008E
:10067200063083120313AE000130AF002C08B00025
:080682002D08B100EB21080076
:10068A002C3083120313AC000130AD000A2300237F
:10069A002C30AC000130AD000A2300235830AC00E6
:1006AA000230AD000A2300232C30AC000130AD002B
:1006BA000A2300232C30AC000130AD000A230023AA
:1006CA005830AC000230AD000A2300232C30AC00B5
:1006DA000130AD00C32200232C30AC000130AD0044
:1006EA000A2300232C30AC000130AD000A2300237A
:1006FA002C30AC000130AD00E82200232C30AC00D5
:10070A000130AD00F42200232C30AC000130AD00E2
:10071A00E82200235830AC000230AD000A2300233F
:10072A002C30AC000130AD000A2300232C30AC0081
:10073A000130AD000A2300235830AC000230AD006E
:10074A000A2300232C30AC000130AD000A23002319
:10075A002C30AC000130AD000A2300235830AC0025
:10076A000230AD000A2300232C30AC000130AD006A
:10077A000A2300232C30AC000130AD00E82200230C
:10078A002C30AC000130AD00F42200232C30AC0038
:10079A000130AD00E82200232C30AC000130AD005E
:1007AA00F42200232C30AC000130AD00CF2200230C
:0E07BA005830AC000230AD00CF220023080002
:1007C8002C3083120313AC000130AD0022232C30EF
:1007D800AC000130AD00CF225830AC000230AD0083
:1007E800CF225830AC000230AD00CF228A30AC00A6
:1007F8000230AD002D232C30AC000130AD00CF22EB
:100808002C30AC000130AD00CF222C30AC000130D0
:10081800AD0022232C30AC000130AD0022238A30F9
:0A082800AC000230AD002D230800E3
:10083200BC228A110A128000840AA10A0319A20AA0
:08084200F003031D192C08004E
:10084A00831203132608AC002708AD00F4222608F9
:10085A00AC002708AD00CF222608AC002708AD005F
:10086A00F4222608AC002708AD00CF222608AC00E7
:10087A002708AD00F4222608AC002708AD0016238D
:10088A002608AC002708AD00F4222608AC00270889
:10089A00AD0016232608AC002708AD00F42226086E
:1008AA00AC002708AD00CF222608AC002708AD000F
:1008BA00F4222608AC002708AD00CF222608AC0097
:1008CA002708AD00F4222608AC002708AD0016233D
:1008DA002608AC002708AD00F4222608AC00270839
:1008EA00AD0016232608AC002708AD00F42226081E
:1008FA00AC002708AD0039232608AC002708AD0054
:10090A00F4222608AC002708AD0039232608AC00DB
:10091A002708AD00F4222608AC002708AD001623EC
:10092A002608AC002708AD00F4222608AC002708E8
:10093A00AD0016232608AC002708AD00F4222608CD
:10094A00AC002708AD00CF222608AC002708AD006E
:10095A00F4222608AC002708AD00CF222608AC00F6
:10096A002708AD00F4222608AC002708AD0016239C
:10097A002608AC002708AD00F4222608AC00270898
:10098A00AD0016232608AC002708AD00F42228087B
:10099A00AC002908AD00CF222808AC002908AD0018
:1009AA0039232608AC002708AD00F4222608AC003B
:1009BA002708AD0016232608AC002708AD00F4224C
:1009CA002608AC002708AD0016232608AC00270825
:1009DA00AD00F4222608AC002708AD00162326082D
:1009EA00AC002708AD00F4222808AC002908AD00A5
:1009FA00CF222808AC002908AD0039232608AC000C
:100A0A002708AD00F4222608AC002708AD00CF2243
:100A1A002608AC002708AD00F4222608AC002708F7
:100A2A00AD0016232608AC002708AD00F4222608DC
:100A3A00AC002708AD0016232608AC002708AD0035
:100A4A00F4222808AC002908AD00CF222808AC00FF
:100A5A002908AD0039232608AC002708AD00F42286
:100A6A002608AC002708AD00CF222608AC002708CC
:100A7A00AD00F4222608AC002708AD00162326088C
:100A8A00AC002708AD00F4222608AC002708AD0008
:100A9A0016232608AC002708AD00F4222808AC006B
:100AAA002908AD00CF222808AC002908AD00392357
:100ABA002608AC002708AD00F4222608AC00270857
:100ACA00AD00CF222608AC002708AD00F422260884
:100ADA00AC002708AD0016232608AC002708AD0095
:0E0AEA00F4222608AC002708AD0016230800F1
:100AF80083120313AB012708F1000130F0007108DD
:100B080003198A2DF00D7010FF3E842D7008AA007D
:100B18002608840070080005F10071080130031DE3
:100B28000030F0002908F0060319B22D2808003C0F
:100B38000318A22DDB22DB22A8039A2D26088400A5
:100B48002A080005F10071080130031D0030F0008B
:100B58002908F0060319B22DFF30AB002B08F0006E
:020B6800080083
:100B6A00933083120313AE000230AF00FA30B000A4
:060B7A00B101EB210800AF
:100B8000BA3083120313AE000230AF00FA30B00067
:060B9000B101EB21080099
:100B9600831203132608A4002708F1000130F00091
:100BA60071080319DA2DF00D7010FF3ED42D700870
:100BB600A500F0097008A30080302607840070089D
:0A0BC6008005841370088005080004
:100BD0008316031788018901831287138813F8305D
:100BE00083160313860007308312A6000330A70084
:100BF000CB25F430AE000130AF00E830B000033058
:100C0000B100EB210630A6000730A7000130A80094
:100C10000130A9007C25700803190F2EB525861F09
:100C2000122E0F2E0630A6000630A7000130A800B5
:100C30000130A9007C25700803191F2EC025061F4E
:100C4000222E1F2E0630A6000530A7000130A80076
:100C50000130A9007C2570080319392E861E392E13
:100C60002630A6000230A700FA30A800A9012524EA
:100C70002E2E0630A6000430A7000130A800013057
:100C8000A9007C2570080319572E061E572EE42351
:100C90000630FB001330FC00AD30FD00FD0B4E2E86
:100CA000FC0B4E2EFB0B4E2E00000000452E063096
:100CB000A6000330A7000130A8000130A9007C2560
:100CC00070080319672E861D672E4523632E022E9A
:020CD000682E8C
:04400E00F22F000786
:00000001FF
